:1000000025C041C040C03FC03EC03DC03CC03BC019
:100010003AC039C038C037C036C035C034C033C02C
:1000200032C031C030C0DCC12EC02DC02CC02BC0AE
:100030002AC029C01002180237027C0260026D0239
:100040009902A902360301032503430311241FBEAD
:10005000CFEFCDBFDFE3DEBF1EE3A0E0BEE3ECE702
:10006000F7E002C005900D92A030B107D9F72EE35A
:10007000A0E0BEE301C01D92A530B207E1F70E94E7
:10008000FC000C94BC030C9400008091003E88237B
:1000900059F088E08093060681E080930B0A8091F6
:1000A0000B0A80FFFCCF04C080910B0A80FFFCCFBD
:1000B00081E080930B0A8091003E882339F180E033
:1000C00030E041E059E068E090910B0A90FFFCCFEE
:1000D00040930B0A332329F06093060690E630E044
:1000E00004C05093060690E431E02091100620935E
:1000F000020820911106822B982B9093020886B15A
:100100008C709091023E9111DFCF089580E021E044
:1001100090910B0A90FFFCCF20930B0A9091100650
:100120009093020890911106892B806480930208B5
:1001300086B18C709091023E9111EACF089584337C
:10014000910510F484E390E08093360A9093370A87
:1001500008958091260A9091270A0895E0E2F4E03C
:1001600084E0848B858B80E18093A000E0E0F6E062
:1001700081E4828381E0818799E0968324E330E003
:100180002093360A3093370AE0E8F1E092E0928754
:10019000838B0C947C030E948803E0E0F6E080816E
:1001A00081608083E0E0FAE010A211A281E0838701
:1001B0008081816080830895E0E0FAE080818E7F15
:1001C0008083E0E0F6E080818E7F80830C949B0347
:1001D00084E080931504059AE0E4FAE08FEF8487C9
:1001E00015861286138687E181830895E0E4FAE09C
:1001F000808181608083089588ED84BF83E080934F
:1002000061000E9471030E9478030E9497010E947E
:10021000AD010E94E8000E94F6000E94AE007894B2
:1002200084E08093170480931604809314048093D1
:100230003704809336048093550480935404C1E0BE
:100240008091023E882339F00E94CB000E94450035
:100250000E94DC00F5CF8091013E882389F3109243
:10026000013EC093023EECCFAF92BF92CF92DF929D
:10027000EF92FF920F931F93CF93DF9300D0CDB7F0
:10028000DEB785E790E00E94AB03813009F041C002
:100290008BE5E82E80E0F82EA12CB12C01ED42E098
:1002A00050E0B701CE0101960E94A7034B9800933E
:1002B000230889818068809324081A81C12CD12C5D
:1002C000C1168CF4C5018C0D9D1D805090400E947C
:1002D000AB039091230897FFFCCF809324088FEF06
:1002E000C81AD80AEDCF812F17FD80E0A80EB11CE7
:1002F00087FDBA948091230887FFFCCF4B9A82E058
:10030000E80EF11C85E7E81680E0F80641F681E08A
:1003100001C080E00F900F90DF91CF911F910F915E
:10032000FF90EF90DF90CF90BF90AF900895E0E006
:10033000F2E0818184608183E0E4F4E084E0838BF7
:10034000828B808B4B9A489898B19D6098B9E0E277
:10035000F8E090E3908381830895E0E2F8E0808103
:10036000816080830895E0E1F8E086E082878185FE
:100370008D7F81871092043E089582E080931A0851
:100380008BE08093043E089580911D08883B29F4FA
:1003900083E080931A0881E00BC0883961F483E020
:1003A00080931A088091190882608093190886E06A
:1003B0008093043E08950C94B30190911B089C60B7
:1003C00090931B08837F813611F0813739F4809137
:1003D00019088D7F809319080C94C4010C94B30103
:1003E0001F920F920FB60F9211242F933F934F93AA
:1003F0005F936F937F938F939F93AF93BF93EF938D
:10040000FF9380911B08E091043E4E2F50E04C304A
:10041000510508F052C1FA01E65EFF4F0C94A103AA
:10042000813619F0813709F042C10E94C40148C1E8
:10043000813A19F0813B09F03DC180911D088093FC
:10044000033E8F3F31F40E9434018111B5C086E034
:1004500007C183E080931A084B9881ED80932308AD
:100460008091190882608093190882E0FCC083376C
:10047000C1F018F48336A9F020C1813A19F0813B0C
:1004800009F01BC18091033E80688093240880910D
:100490001D089091230897FFFCCF8093240883E0E8
:1004A000E2C083E080931A088091033E8093240881
:1004B0008091230887FFFCCF1092240884E0D3C0EA
:1004C000833A19F0833B09F0F8C0809124088093A7
:1004D0001D081092240885E0C6C0833A31F0833BA2
:1004E00009F0EBC00E94BD01EAC08091240880930E
:1004F0001D0810922408E4C08036C1F030F4803426
:10050000A9F0803509F0D9C011C0813A31F0813BA2
:1005100021F0803709F0D1C009C080911D08909169
:10052000230897FFFCCF80932408CAC00E94B30120
:10053000C6C0813A19F0813B09F0BCC080911D080A
:100540008093033E809119088D7F8093190887E07E
:100550008AC0833709F450C020F4833609F44CC0B4
:10056000A9C0813A19F0813B09F0A4C08091033EF3
:10057000813029F160F0823009F099C080911D0826
:100580008093033E83E080931A0888E06CC09091CA
:100590001D088091400A8E7F8093400A8FEF8093E0
:1005A0004C0A90934D0A10924A0A10924B0A80917D
:1005B000400A81608093400A0E94BD0181C0809101
:1005C0001D0891E0282F227081FF90E08170222386
:1005D00071F02091023E222351F02091003E8217BB
:1005E00031F01092023E91E09093013E02C0909350
:1005F000023E8093003EE0CF83E080931A0889E0BA
:1006000032C0833A19F0833B09F054C08091033E15
:100610008130A1F070F0823009F049C00E94A90039
:1006200090931D0893E090931A088093033E8AE00C
:100630001AC080914C0A80914D0A0FC08091003EF3
:100640009091023E880F892B08C0833A21F0833BAA
:1006500009F4B2CF2FC08091033E80931D0883E040
:1006600080931A088BE08093043E2AC0813A11F0EF
:10067000813B01F580911D082091033E90E0922B73
:100680000E949F0099CF823591F038F4823479F03E
:10069000803569F0803471F40AC0823641F018F474
:1006A000803641F404C0803711F0823719F40E947B
:1006B000B30106C00E94DD0103C00E94DD014B9A18
:1006C000FF91EF91BF91AF919F918F917F916F912A
:1006D0005F914F913F912F910F900FBE0F901F9000
:1006E0001895E0E1F8E088EB848789E9868708952A
:1006F00081EE809319080895E0E0F2E08181816045
:100700008183E0E0F4E084E0838B828B818B089529
:10071000E0E0F8E0858188608583099A0B9880B1D4
:100720008A6080B980E48087118683E4878386812C
:10073000806486830895E0E0F8E086818F7B86837D
:100740000895EE0FFF1F0590F491E02D099460507D
:100750007C4E0C94B30303D0808199270895FC014B
:10076000E050FC4E0895FB01DC0102C001900D92A7
:1007700041505040D8F70895F894FFCFFFFFFFFF96
:10078000FFFFFFFFFFFFFFFFFFFFFFFFFFFFFFFF79
:10079000FFFFFFFFFFFFFFFFFFFFFFFFFFFFFFFF69
:1007A000FFFFFFFFFFFFFFFFFFFFFFFFFFFFFFFF59
:1007B000FFFFFFFFFFFFFFFFFFFFFFFFFFFFFFFF49
:00000001FF
